{
  "address": "0xe7f1725E7734CE288F8367e1Bb143E90bb3F0512",
  "abi": [
    {
      "inputs": [
        {
          "internalType": "address",
          "name": "priceFeedAddress",
          "type": "address"
        }
      ],
      "stateMutability": "nonpayable",
      "type": "constructor"
    },
    {
      "inputs": [],
      "name": "FundMe__NotOwner",
      "type": "error"
    },
    {
      "stateMutability": "payable",
      "type": "fallback"
    },
    {
      "inputs": [],
      "name": "MINIMUM_USD",
      "outputs": [
        {
          "internalType": "uint256",
          "name": "",
          "type": "uint256"
        }
      ],
      "stateMutability": "view",
      "type": "function"
    },
    {
      "inputs": [],
      "name": "cheaperWithdraw",
      "outputs": [],
      "stateMutability": "payable",
      "type": "function"
    },
    {
      "inputs": [],
      "name": "fund",
      "outputs": [],
      "stateMutability": "payable",
      "type": "function"
    },
    {
      "inputs": [
        {
          "internalType": "address",
          "name": "funder",
          "type": "address"
        }
      ],
      "name": "getAddressToAmountFunded",
      "outputs": [
        {
          "internalType": "uint256",
          "name": "",
          "type": "uint256"
        }
      ],
      "stateMutability": "view",
      "type": "function"
    },
    {
      "inputs": [
        {
          "internalType": "uint256",
          "name": "index",
          "type": "uint256"
        }
      ],
      "name": "getFunder",
      "outputs": [
        {
          "internalType": "address",
          "name": "",
          "type": "address"
        }
      ],
      "stateMutability": "view",
      "type": "function"
    },
    {
      "inputs": [],
      "name": "getOwners",
      "outputs": [
        {
          "internalType": "address",
          "name": "",
          "type": "address"
        }
      ],
      "stateMutability": "view",
      "type": "function"
    },
    {
      "inputs": [],
      "name": "getPriceFeed",
      "outputs": [
        {
          "internalType": "contract AggregatorV3Interface",
          "name": "",
          "type": "address"
        }
      ],
      "stateMutability": "view",
      "type": "function"
    },
    {
      "inputs": [],
      "name": "withdraw",
      "outputs": [],
      "stateMutability": "payable",
      "type": "function"
    },
    {
      "stateMutability": "payable",
      "type": "receive"
    }
  ],
  "transactionHash": "0x0243b6a1452ff2c39878f1dccafd2277535a623689f9e5350cd8c428d482f9e1",
  "args": [
    "0x5FbDB2315678afecb367f032d93F642f64180aa3"
  ],
  "numDeployments": 1,
  "solcInputHash": "f0a44f4ad60df73d50066a51d582eec8",
  "bytecode": "0x60a06040523480156200001157600080fd5b506040516200131238038062001312833981810160405281019062000037919062000120565b3373ffffffffffffffffffffffffffffffffffffffff1660808173ffffffffffffffffffffffffffffffffffffffff1660601b8152505080600260006101000a81548173ffffffffffffffffffffffffffffffffffffffff021916908373ffffffffffffffffffffffffffffffffffffffff1602179055505062000152565b600080fd5b600073ffffffffffffffffffffffffffffffffffffffff82169050919050565b6000620000e882620000bb565b9050919050565b620000fa81620000db565b81146200010657600080fd5b50565b6000815190506200011a81620000ef565b92915050565b600060208284031215620001395762000138620000b6565b5b6000620001498482850162000109565b91505092915050565b60805160601c61118c6200018660003960008181610335015281816105ae015281816105d401526107ca015261118c6000f3fe60806040526004361061007f5760003560e01c8063a0e67e2b1161004e578063a0e67e2b14610135578063b60d428814610160578063be2693f01461016a578063d7b4750c146101745761008e565b80630343fb25146100985780633ccfd60b146100d55780636b69a592146100df5780639e87a5cd1461010a5761008e565b3661008e5761008c6101b1565b005b6100966101b1565b005b3480156100a457600080fd5b506100bf60048036038101906100ba9190610ac4565b6102eb565b6040516100cc9190610b0a565b60405180910390f35b6100dd610333565b005b3480156100eb57600080fd5b506100f4610573565b6040516101019190610b0a565b60405180910390f35b34801561011657600080fd5b5061011f610580565b60405161012c9190610b84565b60405180910390f35b34801561014157600080fd5b5061014a6105aa565b6040516101579190610bae565b60405180910390f35b6101686101b1565b005b6101726105d2565b005b34801561018057600080fd5b5061019b60048036038101906101969190610bf5565b610896565b6040516101a89190610bae565b60405180910390f35b6802b5e3af16b18800006101f0600260009054906101000a900473ffffffffffffffffffffffffffffffffffffffff16346108de90919063ffffffff16565b1015610231576040517f08c379a000000000000000000000000000000000000000000000000000000000815260040161022890610c7f565b60405180910390fd5b346000803373ffffffffffffffffffffffffffffffffffffffff1673ffffffffffffffffffffffffffffffffffffffff168152602001908152602001600020600082825461027f9190610cce565b925050819055506001339080600181540180825580915050600190039060005260206000200160009091909190916101000a81548173ffffffffffffffffffffffffffffffffffffffff021916908373ffffffffffffffffffffffffffffffffffffffff160217905550565b60008060008373ffffffffffffffffffffffffffffffffffffffff1673ffffffffffffffffffffffffffffffffffffffff168152602001908152602001600020549050919050565b7f000000000000000000000000000000000000000000000000000000000000000073ffffffffffffffffffffffffffffffffffffffff163373ffffffffffffffffffffffffffffffffffffffff16146103b8576040517f579610db00000000000000000000000000000000000000000000000000000000815260040160405180910390fd5b60005b600180549050811015610463576000600182815481106103de576103dd610d24565b5b9060005260206000200160009054906101000a900473ffffffffffffffffffffffffffffffffffffffff16905060008060008373ffffffffffffffffffffffffffffffffffffffff1673ffffffffffffffffffffffffffffffffffffffff1681526020019081526020016000208190555050808061045b90610d53565b9150506103bb565b50600067ffffffffffffffff81111561047f5761047e610d9c565b5b6040519080825280602002602001820160405280156104ad5781602001602082028036833780820191505090505b50600190805190602001906104c39291906109ba565b5060003373ffffffffffffffffffffffffffffffffffffffff16476040516104ea90610dfc565b60006040518083038185875af1925050503d8060008114610527576040519150601f19603f3d011682016040523d82523d6000602084013e61052c565b606091505b5050905080610570576040517f08c379a000000000000000000000000000000000000000000000000000000000815260040161056790610e5d565b60405180910390fd5b50565b6802b5e3af16b188000081565b6000600260009054906101000a900473ffffffffffffffffffffffffffffffffffffffff16905090565b60007f0000000000000000000000000000000000000000000000000000000000000000905090565b7f000000000000000000000000000000000000000000000000000000000000000073ffffffffffffffffffffffffffffffffffffffff163373ffffffffffffffffffffffffffffffffffffffff1614610657576040517f579610db00000000000000000000000000000000000000000000000000000000815260040160405180910390fd5b600060018054806020026020016040519081016040528092919081815260200182805480156106db57602002820191906000526020600020905b8160009054906101000a900473ffffffffffffffffffffffffffffffffffffffff1673ffffffffffffffffffffffffffffffffffffffff1681526020019060010190808311610691575b5050505050905060005b815181101561076557600082828151811061070357610702610d24565b5b6020026020010151905060008060008373ffffffffffffffffffffffffffffffffffffffff1673ffffffffffffffffffffffffffffffffffffffff1681526020019081526020016000208190555050808061075d90610d53565b9150506106e5565b50600067ffffffffffffffff81111561078157610780610d9c565b5b6040519080825280602002602001820160405280156107af5781602001602082028036833780820191505090505b50600190805190602001906107c59291906109ba565b5060007f000000000000000000000000000000000000000000000000000000000000000073ffffffffffffffffffffffffffffffffffffffff164760405161080c90610dfc565b60006040518083038185875af1925050503d8060008114610849576040519150601f19603f3d011682016040523d82523d6000602084013e61084e565b606091505b5050905080610892576040517f08c379a000000000000000000000000000000000000000000000000000000000815260040161088990610e5d565b60405180910390fd5b5050565b6000600182815481106108ac576108ab610d24565b5b9060005260206000200160009054906101000a900473ffffffffffffffffffffffffffffffffffffffff169050919050565b6000806108ea8361091a565b90506000670de0b6b3a764000085836109039190610e7d565b61090d9190610f06565b9050809250505092915050565b6000808273ffffffffffffffffffffffffffffffffffffffff1663feaf968c6040518163ffffffff1660e01b815260040160a06040518083038186803b15801561096357600080fd5b505afa158015610977573d6000803e3d6000fd5b505050506040513d601f19601f8201168201806040525081019061099b9190610fc4565b5050509150506402540be400816109b2919061103f565b915050919050565b828054828255906000526020600020908101928215610a33579160200282015b82811115610a325782518260006101000a81548173ffffffffffffffffffffffffffffffffffffffff021916908373ffffffffffffffffffffffffffffffffffffffff160217905550916020019190600101906109da565b5b509050610a409190610a44565b5090565b5b80821115610a5d576000816000905550600101610a45565b5090565b600080fd5b600073ffffffffffffffffffffffffffffffffffffffff82169050919050565b6000610a9182610a66565b9050919050565b610aa181610a86565b8114610aac57600080fd5b50565b600081359050610abe81610a98565b92915050565b600060208284031215610ada57610ad9610a61565b5b6000610ae884828501610aaf565b91505092915050565b6000819050919050565b610b0481610af1565b82525050565b6000602082019050610b1f6000830184610afb565b92915050565b6000819050919050565b6000610b4a610b45610b4084610a66565b610b25565b610a66565b9050919050565b6000610b5c82610b2f565b9050919050565b6000610b6e82610b51565b9050919050565b610b7e81610b63565b82525050565b6000602082019050610b996000830184610b75565b92915050565b610ba881610a86565b82525050565b6000602082019050610bc36000830184610b9f565b92915050565b610bd281610af1565b8114610bdd57600080fd5b50565b600081359050610bef81610bc9565b92915050565b600060208284031215610c0b57610c0a610a61565b5b6000610c1984828501610be0565b91505092915050565b600082825260208201905092915050565b7f596f75206e65656420746f207370656e64206d6f726520455448210000000000600082015250565b6000610c69601b83610c22565b9150610c7482610c33565b602082019050919050565b60006020820190508181036000830152610c9881610c5c565b9050919050565b7f4e487b7100000000000000000000000000000000000000000000000000000000600052601160045260246000fd5b6000610cd982610af1565b9150610ce483610af1565b9250827fffffffffffffffffffffffffffffffffffffffffffffffffffffffffffffffff03821115610d1957610d18610c9f565b5b828201905092915050565b7f4e487b7100000000000000000000000000000000000000000000000000000000600052603260045260246000fd5b6000610d5e82610af1565b91507fffffffffffffffffffffffffffffffffffffffffffffffffffffffffffffffff821415610d9157610d90610c9f565b5b600182019050919050565b7f4e487b7100000000000000000000000000000000000000000000000000000000600052604160045260246000fd5b600081905092915050565b50565b6000610de6600083610dcb565b9150610df182610dd6565b600082019050919050565b6000610e0782610dd9565b9150819050919050565b7f43616c6c206661696c6564000000000000000000000000000000000000000000600082015250565b6000610e47600b83610c22565b9150610e5282610e11565b602082019050919050565b60006020820190508181036000830152610e7681610e3a565b9050919050565b6000610e8882610af1565b9150610e9383610af1565b9250817fffffffffffffffffffffffffffffffffffffffffffffffffffffffffffffffff0483118215151615610ecc57610ecb610c9f565b5b828202905092915050565b7f4e487b7100000000000000000000000000000000000000000000000000000000600052601260045260246000fd5b6000610f1182610af1565b9150610f1c83610af1565b925082610f2c57610f2b610ed7565b5b828204905092915050565b600069ffffffffffffffffffff82169050919050565b610f5681610f37565b8114610f6157600080fd5b50565b600081519050610f7381610f4d565b92915050565b6000819050919050565b610f8c81610f79565b8114610f9757600080fd5b50565b600081519050610fa981610f83565b92915050565b600081519050610fbe81610bc9565b92915050565b600080600080600060a08688031215610fe057610fdf610a61565b5b6000610fee88828901610f64565b9550506020610fff88828901610f9a565b945050604061101088828901610faf565b935050606061102188828901610faf565b925050608061103288828901610f64565b9150509295509295909350565b600061104a82610f79565b915061105583610f79565b9250827f7fffffffffffffffffffffffffffffffffffffffffffffffffffffffffffffff048211600084136000841316161561109457611093610c9f565b5b817f800000000000000000000000000000000000000000000000000000000000000005831260008412600084131616156110d1576110d0610c9f565b5b827f8000000000000000000000000000000000000000000000000000000000000000058212600084136000841216161561110e5761110d610c9f565b5b827f7fffffffffffffffffffffffffffffffffffffffffffffffffffffffffffffff058212600084126000841216161561114b5761114a610c9f565b5b82820290509291505056fea264697066735822122006bff9f6afb6326bd4b2e2bb8b9f5d1df292950e866b2c986b37b0762cd5140f64736f6c63430008080033",
  "devdoc": {
    "author": "Harun Salami",
    "details": "This implements price feeds as our library",
    "kind": "dev",
    "methods": {
      "fund()": {
        "details": "This implements price feeds as our library"
      }
    },
    "title": "A contract for crowd funding",
    "version": 1
  },
  "userdoc": {
    "kind": "user",
    "methods": {
      "fund()": {
        "notice": "This function funds our contract"
      }
    },
    "notice": "This contract is to demo a sample funding contract",
    "version": 1
  },
  "storageLayout": {
    "storage": [
      {
        "astId": 60,
        "contract": "contracts/FundMe.sol:FundMe",
        "label": "s_addressToAmountFunded",
        "offset": 0,
        "slot": "0",
        "type": "t_mapping(t_address,t_uint256)"
      },
      {
        "astId": 63,
        "contract": "contracts/FundMe.sol:FundMe",
        "label": "s_funders",
        "offset": 0,
        "slot": "1",
        "type": "t_array(t_address)dyn_storage"
      },
      {
        "astId": 75,
        "contract": "contracts/FundMe.sol:FundMe",
        "label": "s_priceFeed",
        "offset": 0,
        "slot": "2",
        "type": "t_contract(AggregatorV3Interface)45"
      }
    ],
    "types": {
      "t_address": {
        "encoding": "inplace",
        "label": "address",
        "numberOfBytes": "20"
      },
      "t_array(t_address)dyn_storage": {
        "base": "t_address",
        "encoding": "dynamic_array",
        "label": "address[]",
        "numberOfBytes": "32"
      },
      "t_contract(AggregatorV3Interface)45": {
        "encoding": "inplace",
        "label": "contract AggregatorV3Interface",
        "numberOfBytes": "20"
      },
      "t_mapping(t_address,t_uint256)": {
        "encoding": "mapping",
        "key": "t_address",
        "label": "mapping(address => uint256)",
        "numberOfBytes": "32",
        "value": "t_uint256"
      },
      "t_uint256": {
        "encoding": "inplace",
        "label": "uint256",
        "numberOfBytes": "32"
      }
    }
  }
}